S014000042696C67654D6F6E69746F722E7372656345
S11300000C9435000C945D000C945D000C945D0020
S11300100C945D000C945D000C945D000C945D00E8
S11300200C945D000C945D000C945D000C945F00D6
S11300300C945D000C945D000C945D000C945D00C8
S11300400C9400030C945D000C9451020C948302F4
S11300500C945D000C945D000C945D000C945D00A8
S11300600C945D000C945D00A90211241FBECFEF17
S1130070D8E0DEBFCDBF11E0A0E0B1E0E6E7F7E0F5
S113008002C005900D92A231B107D9F721E0A2E197
S1130090B1E001C01D92AE3CB207E1F710E0C5E348
S11300A0D0E004C02197FE010E94B303C433D107FA
S11300B0C9F70E94D1000C94B9030C9400001F925C
S11300C00F920FB60F9211248F939F93AF93BF9308
S11300D08091120190911301A0911401B091150126
S11300E00196A11DB11D8093120190931301A09359
S11300F01401B09315018091120190911301A09104
S11301001401B0911501CC97A105B105F8F0109236
S11301101201109213011092140110921501549AB5
S11301205C988091160190911701A0911801B091EB
S1130130190180931A0190931B01A0931C01B093A1
S11301401D0180916F008D7F80936F001092850058
S113015010928400BF91AF919F918F910F900FBE29
S11301600F901F901895F89410928000E1E8F0E049
S11301701082109285001092840089E09DE3909390
S11301808900809388008081886080838081846076
S1130190808380818D7F8083808181608083789457
S11301A008950E9456030E94B30026E040E052ECFA
S11301B061E070E088E291E00E94EC0152985A9A62
S11301C053985B9A0E944A03609316017093170137
S11301D0809318019093190189B182FB882780F9D3
S11301E08093270199B193FB992790F99093260165
S11301F08111E8CF0E944A03609322017093230186
S1130200809324019093250180912701811113C0CB
S1130210549A5C9A89B182FB882780F980932701DC
S11302200E944A0360931E0170931F018093200172
S113023090932101E9CF109285001092840080915F
S11302406F00826080936F00BDCFFC01918D228D81
S1130250892F90E0805C9F4F821B91098F739927AF
S11302600895FC01918D828D981731F0828DE80FED
S1130270F11D858D90E008958FEF9FEF0895FC01A7
S1130280918D828D981761F0828DDF01A80FB11DC9
S11302905D968C91928D9F5F9F73928F90E00895ED
S11302A08FEF9FEF0895FC01538D448D252F30E08F
S11302B0842F90E0821B930B541710F0CF9608956F
S11302C001970895FC01848DDF01A80FB11DA35A85
S11302D0BF4F2C91848D90E001968F739927848F62
S11302E0A689B7892C93A089B1898C9180648C9359
S11302F0938D848D981306C00288F389E02D808144
S11303008F7D80830895EF92FF920F931F93CF9375
S1130310DF93EC0181E0888F9B8D8C8D981305C051
S1130320E889F989808185FD24C0F62E0B8D10E0C3
S11303300F5F1F4F0F731127E02E8C8DE8120CC036
S11303400FB607FCFACFE889F989808185FFF5CFDC
S1130350CE010E946201F1CF8B8DFE01E80FF11DE9
S1130360E35AFF4FF0820B8FEA89FB898081806218
S113037007C0EE89FF896083E889F98980818064F8
S1130380808381E090E0DF91CF911F910F91FF90E6
S1130390EF900895CF93DF93EC01888D8823C9F003
S11303A0EA89FB89808185FD05C0A889B9898C917A
S11303B086FD0FC00FB607FCF5CF808185FFF2CF15
S11303C0A889B9898C9185FFEDCFCE010E94620185
S11303D0E7CFDF91CF910895CF92DF92EF92FF9212
S11303E01F93CF93DF93EC016A017B01122FE889FD
S11303F0F98982E080834115514E61057105B1F0A0
S113040060E079E08DE390E0A70196010E949103FA
S1130410DA01C9010197A109B109B695A795979584
S113042087959C01211580E13807A8F0E889F989AE
S1130430108260E874E88EE190E0A70196010E94C2
S11304409103DA01C9010197A109B109B695A795EC
S1130450979587959C01EC85FD853083EE85FF8516
S11304602083188EEC89FD891083EA89FB898081B9
S113047080618083EA89FB89808188608083EA893E
S1130480FB89808180688083EA89FB8980818F7DF4
S11304908083DF91CF911F91FF90EF90DF90CF90F9
S11304A008951F920F920FB60F9211242F938F93DA
S11304B09F93EF93FF93E0913801F091390180818C
S11304C0E0913E01F0913F0182FD12C09081809144
S11304D041018F5F8F7320914201821751F0E091A7
S11304E04101F0E0E85DFE4F958F8093410101C02A
S11304F08081FF91EF919F918F912F910F900FBE6B
S11305000F901F9018951F920F920FB60F921124FF
S11305102F933F934F935F936F937F938F939F9307
S1130520AF93BF93EF93FF9388E291E00E9462013F
S1130530FF91EF91BF91AF919F918F917F916F91B7
S11305405F914F913F912F910F900FBE0F901F908D
S11305501895E8E2F1E01382128288EE93E0A0E0BD
S1130560B0E084839583A683B78384E091E091838C
S1130570808385EC90E09587848784EC90E097876E
S1130580868780EC90E0918B808B81EC90E0938B5C
S1130590828B82EC90E0958B848B86EC90E0978B39
S11305A0868B118E128E138E148E0895CF92DF9245
S11305B0EF92FF920F931F93CF93DF936C017A0115
S11305C08B01C0E0D0E0CE15DF0581F0D8016D913C
S11305D08D01D601ED91FC910190F081E02DC601D1
S11305E00995892B11F02196EECF7E01C701DF9189
S11305F0CF911F910F91FF90EF90DF90CF900895CE
S11306001F920F920FB60F9211242F933F938F9343
S11306109F93AF93BF938091C6019091C701A0911E
S1130620C801B091C9013091C50123E0230F2D37D2
S113063020F40196A11DB11D05C026E8230F0296E2
S1130640A11DB11D2093C5018093C6019093C701DC
S1130650A093C801B093C9018091CA019091CB01C4
S1130660A091CC01B091CD010196A11DB11D809343
S1130670CA019093CB01A093CC01B093CD01BF915B
S1130680AF919F918F913F912F910F900FBE0F903B
S11306901F9018952FB7F8946091C6017091C70107
S11306A08091C8019091C9012FBF0895789484B5B1
S11306B0826084BD84B5816084BD85B5826085BD5A
S11306C085B5816085BDEEE6F0E080818160808340
S11306D0E1E8F0E010828081826080838081816023
S11306E08083E0E8F0E0808181608083E1EBF0E0EA
S11306F0808184608083E0EBF0E08081816080838E
S1130700EAE7F0E080818460808380818260808376
S11307108081816080838081806880831092C100A1
S11307200895A1E21A2EAA1BBB1BFD010DC0AA1F2E
S1130730BB1FEE1FFF1FA217B307E407F50720F046
S1130740A21BB30BE40BF50B661F771F881F991FC1
S11307501A9469F760957095809590959B01AC010A
S1130760BD01CF010895EE0FFF1F0590F491E02D18
S10907700994F894FFCF88
S1130776000000008301D6025301CA0125013F018E
S105078631013B
S9030000FC
