:100000000C9435000C945D000C945D000C945D0024
:100010000C945D000C945D000C945D000C945D00EC
:100020000C945D000C945D000C945D000C945F00DA
:100030000C945D000C945D000C945D000C945D00CC
:100040000C9493030C945D000C94E4020C9416033E
:100050000C945D000C945D000C945D000C945D00AC
:100060000C945D000C945D003C0311241FBECFEF87
:10007000D8E0DEBFCDBF11E0A0E0B1E0E0E6F9E0FE
:1000800002C005900D92A231B107D9F721E0A2E19B
:10009000B1E001C01D92A03DB207E1F710E0C5E359
:1000A000D0E004C02197FE010E94A804C433D10708
:1000B000C9F70E9494010C94AE040C9400001F92A6
:1000C0000F920FB60F9211244F935F936F937F930C
:1000D0008F939F93AF93BF938091130190911401DD
:1000E000A0911501B09116010196A11DB11D80933B
:1000F000130190931401A0931501B0931601409140
:1001000013015091140160911501709116018091B5
:10011000120190E0A0E0B0E0481759076A077B079A
:10012000F8F0549A5C9810921301109214011092F6
:100130001501109216018091170190911801A0915C
:100140001901B0911A0180931B0190931C01A09397
:100150001D01B0931E0180916F008D7F80936F0011
:100160001092850010928400BF91AF919F918F9162
:100170007F916F915F914F910F900FBE0F901F90E5
:10018000189589B182FB882780F98093290189B16C
:1001900083FB882780F98093280183B18170809345
:1001A0002701089580931201EFE6F0E080818260DC
:1001B0008083089540911B0150911C0160911D01A5
:1001C00070911E018091170190911801A091190161
:1001D000B0911A01841B950BA60BB70B81309D4D76
:1001E000AD46B10528F0549A5C9A8EE10C94D20089
:1001F000089580912801811119C062E370E080E0C8
:1002000090E00E940E0480912801569A81110AC044
:100210005E9A549A5C9A89B183FB882780F980930F
:100220002801F1CF5E9888E70C94D2000895809160
:10023000270181111CC064E670E080E090E00E941C
:100240000E048091270181110FC0549A5C9A83B1EA
:1002500081708093270189B183FB882780F980937F
:1002600028010E94F900EDCF81E00C94D20008959E
:1002700080912901811132C062E370E080E090E05A
:100280000E940E040E94DD036093230170932401F9
:1002900080932501909326018091290181111BC033
:1002A000549A5C9A89B182FB882780F9809329014E
:1002B0000E94DD0360931F01709320018093210150
:1002C0009093220189B183FB882780F980932801CC
:1002D0000E94F900E1CF8EE10C94D2000895F894C9
:1002E00010928000E1E8F0E01082109285001092F8
:1002F000840089E09DE39093890080938800808149
:100300008860808380818460808380818D7F80830A
:100310008081816080837894089552985A9A539886
:100320005B9A2098289A08950E944A040E946F01BF
:100330000E948D0126E040E052EC61E070E08AE22C
:1003400091E00E947F020E94DD0360931701709389
:1003500018018093190190931A010E94C1000E9414
:1003600017010E9438010E94DA000E94F900EBCFC9
:10037000FC01918D228D892F90E0805C9F4F821B24
:1003800091098F7399270895FC01918D828D98179B
:1003900031F0828DE80FF11D858D90E008958FEF8B
:1003A0009FEF0895FC01918D828D981761F0828DE9
:1003B000DF01A80FB11D5D968C91928D9F5F9F7399
:1003C000928F90E008958FEF9FEF0895FC01538D79
:1003D000448D252F30E0842F90E0821B930B54171F
:1003E00010F0CF96089501970895FC01848DDF01E8
:1003F000A80FB11DA35ABF4F2C91848D90E0019698
:100400008F739927848FA689B7892C93A089B18986
:100410008C9180648C93938D848D981306C0028890
:10042000F389E02D80818F7D80830895EF92FF9284
:100430000F931F93CF93DF93EC0181E0888F9B8D07
:100440008C8D981305C0E889F989808185FD24C0C9
:10045000F62E0B8D10E00F5F1F4F0F731127E02E4C
:100460008C8DE8120CC00FB607FCFACFE889F98929
:10047000808185FFF5CFCE010E94F501F1CF8B8DF4
:10048000FE01E80FF11DE35AFF4FF0820B8FEA895E
:10049000FB898081806207C0EE89FF896083E889DB
:1004A000F98980818064808381E090E0DF91CF9141
:1004B0001F910F91FF90EF900895CF93DF93EC0180
:1004C000888D8823C9F0EA89FB89808185FD05C074
:1004D000A889B9898C9186FD0FC00FB607FCF5CFAE
:1004E000808185FFF2CFA889B9898C9185FFEDCFF6
:1004F000CE010E94F501E7CFDF91CF910895CF9211
:10050000DF92EF92FF921F93CF93DF93EC016A018A
:100510007B01122FE889F98982E080834115514ED1
:1005200061057105B1F060E079E08DE390E0A7012D
:1005300096010E948604DA01C9010197A109B10957
:10054000B695A795979587959C01211580E1380769
:10055000A8F0E889F989108260E874E88EE190E0FB
:10056000A70196010E948604DA01C9010197A10939
:10057000B109B695A795979587959C01EC85FD8562
:100580003083EE85FF852083188EEC89FD891083EA
:10059000EA89FB89808180618083EA89FB89808187
:1005A00088608083EA89FB89808180688083EA890A
:1005B000FB8980818F7D8083DF91CF911F91FF9098
:1005C000EF90DF90CF9008951F920F920FB60F9289
:1005D00011242F938F939F93EF93FF93E0913A0110
:1005E000F0913B018081E0914001F091410182FD59
:1005F00012C09081809143018F5F8F7320914401DD
:10060000821751F0E0914301F0E0E65DFE4F958FD7
:100610008093430101C08081FF91EF919F918F9161
:100620002F910F900FBE0F901F9018951F920F9251
:100630000FB60F9211242F933F934F935F936F93B5
:100640007F938F939F93AF93BF93EF93FF938AE230
:1006500091E00E94F501FF91EF91BF91AF919F91C1
:100660008F917F916F915F914F913F912F910F905B
:100670000FBE0F901F901895EAE2F1E013821282EC
:1006800088EE93E0A0E0B0E084839583A683B783EF
:1006900084E091E09183808385EC90E09587848766
:1006A00084EC90E09787868780EC90E0918B808B3C
:1006B00081EC90E0938B828B82EC90E0958B848B25
:1006C00086EC90E0978B868B118E128E138E148E93
:1006D0000895CF92DF92EF92FF920F931F93CF93E3
:1006E000DF936C017A018B01C0E0D0E0CE15DF050D
:1006F00081F0D8016D918D01D601ED91FC910190B1
:10070000F081E02DC6010995892B11F02196EECFDD
:100710007E01C701DF91CF911F910F91FF90EF9064
:10072000DF90CF9008951F920F920FB60F92112471
:100730002F933F938F939F93AF93BF938091C80163
:100740009091C901A091CA01B091CB013091C7012C
:1007500023E0230F2D3720F40196A11DB11D05C004
:1007600026E8230F0296A11DB11D2093C701809397
:10077000C8019093C901A093CA01B093CB018091A5
:10078000CC019091CD01A091CE01B091CF01019605
:10079000A11DB11D8093CC019093CD01A093CE01FA
:1007A000B093CF01BF91AF919F918F913F912F91C6
:1007B0000F900FBE0F901F9018952FB7F89460916F
:1007C000C8017091C9018091CA019091CB012FBFDE
:1007D00008953FB7F8948091CC019091CD01A091FC
:1007E000CE01B091CF0126B5A89B05C02F3F19F0CF
:1007F0000196A11DB11D3FBFBA2FA92F982F8827A1
:10080000820F911DA11DB11DBC01CD0142E0660FFB
:10081000771F881F991F4A95D1F708958F929F924D
:10082000AF92BF92CF92DF92EF92FF926B017C0169
:100830000E94E9034B015C01C114D104E104F104FD
:1008400001F10E9485040E94E903DC01CB018819B3
:100850009909AA09BB09883E9340A105B10560F337
:1008600021E0C21AD108E108F10888EE880E83E081
:10087000981EA11CB11CC114D104E104F10419F7A4
:10088000DBCFFF90EF90DF90CF90BF90AF909F9025
:100890008F900895789484B5826084BD84B581601A
:1008A00084BD85B5826085BD85B5816085BDEEE678
:1008B000F0E0808181608083E1E8F0E01082808157
:1008C00082608083808181608083E0E8F0E08081C5
:1008D00081608083E1EBF0E0808184608083E0EBE5
:1008E000F0E0808181608083EAE7F0E080818460CD
:1008F0008083808182608083808181608083808129
:10090000806880831092C10008950895A1E21A2E94
:10091000AA1BBB1BFD010DC0AA1FBB1FEE1FFF1FA3
:10092000A217B307E407F50720F0A21BB30BE40BF3
:10093000F50B661F771F881F991F1A9469F760953A
:100940007095809590959B01AC01BD01CF010895F4
:10095000EE0FFF1F0590F491E02D0994F894FFCF5E
:100960000000000016026903E6015D02B801D20131
:02097000C401C0
:00000001FF
